{"abi":[{"type":"function","name":"exec","inputs":[{"name":"_op","type":"uint256","internalType":"uint256"},{"name":"_loc0","type":"uint256","internalType":"uint256"},{"name":"_loc1","type":"uint256","internalType":"uint256"}],"outputs":[{"name":"","type":"bool","internalType":"bool"}],"stateMutability":"nonpayable"},{"type":"function","name":"read","inputs":[{"name":"_loc","type":"uint256","internalType":"uint256"}],"outputs":[{"name":"","type":"uint256","internalType":"uint256"}],"stateMutability":"view"},{"type":"function","name":"write","inputs":[{"name":"_loc","type":"uint256","internalType":"uint256"},{"name":"_val","type":"uint256","internalType":"uint256"}],"outputs":[{"name":"","type":"bool","internalType":"bool"}],"stateMutability":"nonpayable"}],"bytecode":{"object":"0x608060405234801561001057600080fd5b506102a5806100206000396000f3fe608060405234801561001057600080fd5b50600436106100415760003560e01c80639273ad4e146100465780639c0e3f7a1461006e578063ed2e5a9714610081575b600080fd5b6100596100543660046101c6565b6100af565b60405190151581526020015b60405180910390f35b61005961007c3660046101f2565b6101ac565b6100a161008f366004610214565b60009081526020819052604090205490565b604051908152602001610065565b60008060405180604001604052806100d38660009081526020819052604090205490565b81526020016100ee8560009081526020819052604090205490565b905290506000198501610116576020810151815161010e918691016101ac565b9150506101a5565b60f28503610148576020810151815161010e9186911061013e578260005b60200201516101ac565b60208301516101ac565b60ee850361004157602081018051825118905260008082525b6020811015610198576020820151825190821c600116908390610185908390610243565b90525061019181610256565b9050610161565b5061010e84826000610134565b9392505050565b600082815260208190526040902081905560015b92915050565b6000806000606084860312156101db57600080fd5b505081359360208301359350604090920135919050565b6000806040838503121561020557600080fd5b50508035926020909101359150565b60006020828403121561022657600080fd5b5035919050565b634e487b7160e01b600052601160045260246000fd5b808201808211156101c0576101c061022d565b6000600182016102685761026861022d565b506001019056fea2646970667358221220f57c81b0da9844f6c67c8f6bb6ca94f7415834cdbbb31051c5dc2efba1c8b55564736f6c63430008130033","linkReferences":{}},"methodIdentifiers":{"exec(uint256,uint256,uint256)":"9273ad4e","read(uint256)":"ed2e5a97","write(uint256,uint256)":"9c0e3f7a"},"id":25}